:100000000C942A000C9434000C9434000C943400AA
:100010000C9434000C9434000C9434000C94340090
:100020000C9434000C9434000C9434000C94340080
:100030000C9434000C9434000C9434000C94340070
:100040000C9434000C9434000C9434000C94340060
:100050000C94340011241FBECFE5D8E0DEBFCDBF25
:100060000E944A000C9412010C94000085BB84E0AD
:1000700082BB8FEC97E00197F1F700C0000012BA45
:100080009FE728E381E0915020408040E1F700C0E5
:1000900000000895CF93DF93CDB7DEB764970FB616
:1000A000F894DEBF0FBECDBF8FEF84BB87E081BB6E
:1000B00088E30E9436008FEC97E00197F1F700C0CB
:1000C000000081E00E9436008FEC97E00197F1F785
:1000D00000C000008EE00E9436008FEC97E0019790
:1000E000F1F700C0000080E80E9436008FEC97E036
:1000F0000197F1F700C000008FE00E94360080E415
:1001000087B983E886B9369A80B780BF88B188B945
:1001100080EB87BB80E188BB83E58DB91EB884EF97
:10012000E82EFF24F394DD24D39405E0459BFECF15
:1001300086B1806586B9349BFECF85B115B824B1F0
:1001400035B12E9DC0012F9D900D3E9D900D112427
:10015000192F169516954AE0BE016F5F7F4F812FCC
:1001600090E00E94DD0081E00E943600FE013196A1
:10017000819181110FC09FEF23EC89E091502040C5
:100180008040E1F700C00000C4981FB9779BFECF04
:100190008FB1CCCF85BB02BB8FEC97E00197F1F715
:1001A00000C00000D2BA9FE728E381E091502040D0
:1001B0008040E1F700C00000DBCFBB274A3031F4BC
:1001C000992322F4BDE2909581959F4F0C94E9000C
:1001D000BB27FB015527AA27880F991FAA1FA41721
:1001E00010F0A41B83955051B9F7A05DAA3308F015
:1001F000A95DA193009779F7B111B1931192CB0149
:100200000C940201DC01FC01672F71917723E1F767
:10021000329704C07C916D9370836291AE17BF07D3
:08022000C8F30895F894FFCF24
:00000001FF
