:100000000C942A000C943F000C943F000C943F0089
:100010000C943F000C943F000C943F000C943F0064
:100020000C943F000C943F000C943F000C943F0054
:100030000C943F000C943F000C943F000C943F0044
:100040000C943F000C943F000C943F000C943F0034
:100050000C943F0011241FBECFE5D8E0DEBFCDBF1A
:1000600010E0A0E6B0E0EEEBF5E002C005900D92E6
:10007000A436B107D9F70E9441000C94DD020C941C
:1000800000009FEF94BB80E487BB83E48DB91EB86A
:10009000BB9A83B7886483BF83B7806283BF83B70B
:1000A000826083BF9ABB10E301E0C5E0D0E08AE044
:1000B000F82E1FB9779BFECF8FB1282F30E085BB7C
:1000C0001BBA2431310518F4D99A1CBEF2CFC901EC
:1000D00049978E31910560F5BE010E94B502F69EEA
:1000E000C001F79E900D1124BC01990F880B990B4C
:1000F0000E94BC0120E030E048E452E40E94AD00E0
:10010000609360007093610080936200909363003D
:1001100020E030E048EC52E40E94190120E030E099
:100120004FE753E40E9448020E948B016CBFC1CF8D
:100130002733310508F4BDCF1CBE8BB380278BBBA2
:100140008FE39CE90197F1F700C00000779BFECF99
:100150008FB1873390F7ADCF5058BB27AA270E94A5
:10016000C4000C940E020E94000238F00E940702A4
:1001700020F039F49F3F19F426F40C94FD010EF49D
:10018000E095E7FB0C94F701E92F0E941F0258F35A
:10019000BA17620773078407950720F079F4A6F56C
:1001A0000C9441020EF4E0950B2EBA2FA02D0B01FA
:1001B000B90190010C01CA01A0011124FF27591BAC
:1001C00099F0593F50F4503E68F11A16F040A22FB2
:1001D000232F342F4427585FF3CF46953795279523
:1001E000A795F0405395C9F77EF41F16BA0B620B22
:1001F000730B840BBAF09150A1F0FF0FBB1F661F69
:10020000771F881FC2F70EC0BA0F621F731F841FAB
:1002100048F4879577956795B795F7959E3F08F0D1
:10022000B0CF9395880F08F09927EE0F9795879593
:1002300008950E942D010C940E020E94070258F0AE
:100240000E94000240F029F45F3F29F00C94F7016E
:1002500051110C9442020C94FD010E941F0268F39C
:100260009923B1F3552391F3951B550BBB27AA276F
:1002700062177307840738F09F5F5F4F220F331FA9
:10028000441FAA1FA9F335D00E2E3AF0E0E832D071
:1002900091505040E695001CCAF72BD0FE2F29D074
:1002A000660F771F881FBB1F261737074807AB0746
:1002B000B0E809F0BB0B802DBF01FF2793585F4FBB
:1002C0003AF09E3F510578F00C94F7010C944202ED
:1002D0005F3FE4F3983ED4F3869577956795B7959D
:1002E000F7959F5FC9F7880F911D9695879597F9A8
:1002F0000895E1E0660F771F881FBB1F6217730721
:100300008407BA0720F0621B730B840BBA0BEE1F35
:1003100088F7E09508950E94270288F09F5798F08B
:10032000B92F9927B751B0F0E1F0660F771F881FFA
:10033000991F1AF0BA95C9F714C0B13091F00E9414
:100340004102B1E008950C944102672F782F88276D
:10035000B85F39F0B93FCCF3869577956795B3953B
:10036000D9F73EF490958095709561957F4F8F4FAA
:100370009F4F0895E89409C097FB3EF490958095AF
:10038000709561957F4F8F4F9F4F9923A9F0F92F5B
:1003900096E9BB279395F695879577956795B795D9
:1003A000F111F8CFFAF4BB0F11F460FF1BC06F5FBF
:1003B0007F4F8F4F9F4F16C0882311F096E911C0D1
:1003C000772321F09EE8872F762F05C0662371F0F2
:1003D00096E8862F70E060E02AF09A95660F771F06
:1003E000881FDAF7880F9695879597F9089597F9FA
:1003F0009F6780E870E060E008959FEF80EC0895CB
:1004000000240A94161617061806090608950024F3
:100410000A9412161306140605060895092E03946D
:10042000000C11F4882352F0BB0F40F4BF2B11F4E1
:1004300060FF04C06F5F7F4F8F4F9F4F089557FD40
:100440009058440F551F59F05F3F71F04795880F42
:1004500097FB991F61F09F3F79F0879508951216D9
:1004600013061406551FF2CF4695F1DF08C0161685
:1004700017061806991FF1CF869571056105089436
:100480000895E894BB2766277727CB0197F908954D
:100490000E945B020C940E020E94000238F00E943F
:1004A000070220F0952311F00C94F7010C94FD0144
:1004B00011240C9442020E941F0270F3959FC1F315
:1004C000950F50E0551F629FF001729FBB27F00D02
:1004D000B11D639FAA27F00DB11DAA1F649F662757
:1004E000B00DA11D661F829F2227B00DA11D621FA6
:1004F000739FB00DA11D621F839FA00D611D221F60
:10050000749F3327A00D611D231F849F600D211D43
:10051000822F762F6A2F11249F5750409AF0F1F0C6
:1005200088234AF0EE0FFF1FBB1F661F771F881F2F
:1005300091505040A9F79E3F510580F00C94F7016F
:100540000C9442025F3FE4F3983ED4F3869577958E
:100550006795B795F795E7959F5FC1F7FE2B880FD5
:10056000911D9695879597F9089597FB072E16F498
:10057000009407D077FD09D00E94C90207FC05D07E
:100580003EF4909581959F4F0895709561957F4FAA
:100590000895AA1BBB1B51E107C0AA1FBB1FA617CA
:1005A000B70710F0A61BB70B881F991F5A95A9F71C
:0E05B00080959095BC01CD010895F894FFCF81
:0405BE0000004842AF
:00000001FF
